:020000040020DA
:10200000E87500208D22200043D4200041D4200018
:1020100041D4200041D4200041D420000000000021
:1020200000000000000000000000000041D420007B
:1020300041D420000000000041D42000F5D520004C
:1020400017D620001DD6200023D6200029D6200038
:1020500000000000FBD5200001D6200041D4200064
:1020600041D420000000000000000000000000003B
:10207000000000000000000041D42000000000002B
:10208000000000000000000041D4200041D42000E6
:1020900041D4200041D4200041D4200041D420006C
:1020A00041D4200041D4200041D4200041D420005C
:1020B00041D4200041D4200041D4200041D420004C
:1020C00041D4200041D4200041D4200041D420003C
:1020D00041D42000000000000000000000000000CB
:1020E00000000000000000000000000000000000F0
:1020F00000000000000000000D5020001D502000D6
:1021000000000000000000000000000000000000CF
:1021100000000000000000000000000000000000BF
:1021200000000000000000000000000000000000AF
:10213000000000000000000000000000000000009F
:10214000000000000000000000000000000000008F
:10215000000000000000000000000000000000007F
:10216000000000000000000000000000000000006F
:10217000000000000000000000000000000000005F
:10218000000000000000000000000000000000004F
:10219000000000000000000000000000000000003F
:1021A000000000000000000000000000000000002F
:1021B000000000000000000000000000000000001F
:1021C000000000000000000000000000000000000F
:1021D00000000000000000000000000000000000FF
:1021E00000000000000000000000000000000000EF
:1021F00000000000000000000000000000000000DF
:1022000000000000000000000000000000000000CE
:1022100000000000000000000000000000000000BE
:1022200000000000000000000000000000000000AE
:10223000000000000000000000000000000000009E
:10224000000000000000000000000000000000008E
:10225000000000000000000000000000000000007E
:10226000000000000000000000000000000000006E
:1022700041D42000F54E2000194F2000A545200034
:102280007D5120003140200041D4200008B5094B89
:10229000FF221A600848094A4824E3690849121ACB
:1022A00098470848084AA3690021121A984701F084
:1022B00043FBFEE7B4200D404040002021420020B7
:1022C000ECF6200028420020E56D002010B5044601
:1022D000436E9847034BE06E19780022BDE810402A
:1022E00003F088BFD26D00202DE9F3470C46174656
:1022F0001E46002B00F0698191F8B0341BB101F546
:1023000095600BF0B4F894F8B1346BB93B78012EBA
:1023100084F8B134D4F8AC3403F10103C4F8AC341C
:1023200000F05381012500E0002594F8B7345BBB31
:102330007819B54280F04981D4F8AC3494F8B824C7
:1023400001330132052B10F8011B05F10105C4F81A
:10235000AC3484F8B82405D9204680210022FFF748
:10236000B5FF32E194F8B634B4F8B2E401F07F027C
:1023700002FB03E2DB0184F8B6340B06A4F8B224B6
:10238000D7D4012384F8B734B4F8B224B2F5007F6F
:1023900036D994F8B13403F0F003302B30D0D4F8B0
:1023A000AC3401321E449642C4F8AC64C0F00D81D6
:1023B00008E102F0F002302A2CD094F8B904C5EB01
:1023C0000608C0F50073984528BF9846204479193F
:1023D000424600F2BA400AF035FED4F8AC3494F824
:1023E000B9244344424484F8B924C4F8AC34454485
:1023F0000022D1B2414502F10102FAD3B54262D2C4
:10240000B4F8B224D4F8AC340132934294F8B12435
:10241000CFD35EE094F8BF26002ACED194F8BE2632
:10242000A2B97A5D691C1202581CB142A4F8BA26FE
:10243000C4F8AC0445D2795C02330A43C4F8AC3426
:1024400001230235A4F8BA2684F8BE36B4F8BEA635
:10245000BAF1010FB1D1B4F8BC06B4F8BA36C5EB85
:1024600006081A1A904528BF904620441FFA88F99A
:1024700079194A4600F2C4600AF0E4FDB4F8BC26BB
:10248000D4F8AC344244B4F8BA1692B24B449142F8
:102490004D44C4F8AC34A4F8BC260ED16318002215
:1024A00084F8BFA683F8C426B4F8B234023B5B1AA2
:1024B0009BB2A4F81037A4F81237012384F80E3722
:1024C0007BE70D4679E7B4F8B2240132934297D204
:1024D0007BE002F0F003502B6FD006D8302B38D0C1
:1024E000402B45D0202B6DD118E0702B65D002D841
:1024F000602B62D066E0902B4FF0010246D0B02BEB
:1025000060D184F8992294F8BB3494F8BA24204618
:1025100043EA0223A4F8B43403214BE094F8BB341B
:102520002BB12046822104F2BB42FFF7CFFEE18AA5
:10253000012384F8993204F11800C901254A234681
:1025400003F05CFC0823002184F8603020460A4632
:1025500036E004F2BA43C4F8083794F8B934204698
:10256000A4F80C370023A4F812370AF08AFF29E0F8
:10257000012384F8993294F8BA2494F8BB342046A5
:1025800043EA0223A4F8B434052113E084F8992225
:1025900094F8BB3494F8BA24204643EA022394F812
:1025A000BC24ADF804308DF80620A4F8B434022120
:1025B00001AA05E004F2B44202E020468421002290
:1025C000FFF784FE012384F8B034002002B0BDE898
:1025D000F08700BFD925200010B590F838300246AA
:1025E0008BB100F22C74022380F8603020460BF08F
:1025F0008AFA204607F070F82046BDE81040002116
:1026000034220AF0F9BD034B03481978BDE81040A5
:1026100003F0F0BDD65B00204040002030B50446FA
:102620000523002580F86030012385B0A0F86830CC
:10263000A0F89C5280F8385000F595600AF017FF1A
:102640000E4A04F1740302920D4A84F87452009306
:1026500004F22C754FF400730392214604F2A62273
:102660000193284606F0BEFF2846B4F8282704F553
:10267000E36105B0BDE8304006F0EABFE922200082
:102680008526200013B50C468DF80720042A3BD878
:10269000DFE802F0200303032D001C4B22461978CB
:1026A0001B4803F0A7FD032384F8603004F11800F1
:1026B00003F0E6FB204601210DF10702FFF706FEBD
:1026C00020460AF0F6FE637D012B1DD12046FFF760
:1026D000A5FF19E0062381F86030012381F87432E8
:1026E0000C4B224619780A4803F084FD0CE0B1F83F
:1026F0004E372BB9012381F8743201F174030B6753
:1027000004F1180003F0A0FB02B010BDDE5B002056
:1027100040400020D95B002038B51D4C2578002DA5
:1027200034D103F0FBFC1B4B18701B4B187003F0EB
:10273000F5FC1A4B187003F0F1FC194B187003F0FC
:10274000EDFC184B187003F0E9FC174B187003F000
:10275000E5FC164B187003F0E1FC154B187003F004
:10276000DDFC144B187003F0D9FC134B1870134B9D
:10277000187003F0D3FC124B187012480BF06CF871
:102780001148294603F05EFD0123237038BD00BFC8
:10279000DD5B0020E15B0020D75B0020D95B0020DF
:1027A000DC5B0020DF5B0020E05B0020DA5B0020C8
:1027B000D65B0020D26D0020DE5B0020D85B0020BD
:1027C000DB5B00203C42002040400020F8B51F4663
:1027D000137804460E46154633B34FF4EC620021DD
:1027E0000AF00AFD294604F10C000AF0C9FEBDF802
:1027F0001820012300256375A4F8A422A4F86830EA
:1028000004F595606766E666A4F89C5284F8385033
:102810000AF02DFE84F87452FFF77EFF034821462C
:102820000BF03BF82846F8BD8220F8BD3C42002062
:102830007FB5044690F8600003281ED8E38204F1B7
:1028400074032367002384F89932237DC4F8141796
:1028500043F00203A4F828272375084604F5E3662D
:1028600069460BF05CF99DE80F0086E80F00044B09
:1028700004481978224603F0BDFC002004B070BD66
:10288000E15B00204040002090F860300246082BB9
:1028900007D1092380F86030024B0348197803F010
:1028A000A9BC7047DC5B0020404000202DE9F341CB
:1028B0008DF8071040F2A741038806468B42154663
:1028C00000F01283B3F5956F0CD240F282418B4237
:1028D0001ED040F299418B4200F03687002B40F029
:1028E0009D8057E040F2C6418B4200F0E58305D859
:1028F00040F2B9418B4200F06A838FE040F2D3414D
:102900008B4200F0F284B3F59C6F00F0F08585E017
:10291000C44B9DF807201B789A4207D1C24B28462A
:102920001D600A2385F860300AF0C3FDBF4B9DF897
:1029300007201B789A4204D1BB4B28461D60FFF745
:102940006DFEBB4B9DF807201B789A4225D0B94AF3
:102950009DF807301178994200F0B782B64B9DF888
:1029600007201B789A4200F02283B44B9DF8072081
:102970001B789A4200F09083B14B9DF807201B789A
:102980009A4200F0A284AF4B9DF807201B789A4230
:1029900000F09D8540F282433CE0A34B1D60B5F8FA
:1029A000A432A5F8543795F87432012BCFD1002307
:1029B000A5F89C329C4F3C68B4F89C32B3F5D17FAB
:1029C00000F08B8157D8B3F5CD7F00F00A8132D863
:1029D00040F29712934200F0D980B3F5CC7F22D217
:1029E000002B00F08E80B3F5CA7F40F06A8294F825
:1029F0007432002B40F0B3803B6893F860300A2BB0
:102A0000A5D0914B00221868904B197803F0F2FB87
:102A100040F299433380012000F040BF002333800F
:102A2000032000F03BBF00F0BF8040F299129342B8
:102A300000F0C88045E240F29D12934200F01481FC
:102A4000B3F5CF7F09D240F29B12934200F0D780BA
:102A5000B3F5CE7F00F0E18033E240F29F12934263
:102A600000F01E81B3F5CF7F40F20C81B3F5D07F2B
:102A700000F0248125E240F2B312934200F0A281DB
:102A8000B3F5DA7F20D240F2A712934200F05A81C8
:102A9000B3F5D47F09D2B3F5D27F00F0348140F290
:102AA000A512934200F03E810BE240F2A91293423C
:102AB00000F06581B3F5D47F40F2528140F2AB1251
:102AC000934200F06D81FCE1B3F5DD7F00F0BC8145
:102AD00009D8B3F5DA7F00F0848140F2B71293424F
:102AE00000F09081EDE1B3F5DF7F00F0CD81B3F52B
:102AF000E57F00F0CE8140F2BB12934240F0E181CD
:102B0000B1E1228A102384F8783202B1023202F154
:102B10000C03B4F8542002B102321344B4F85C2020
:102B200002B102321344B4F8402002B1023213441D
:102B3000B4F8482002B102321A44C4F87C2204F5E9
:102B4000207004F521710AF07FFC94F88432042B84
:102B500005D9204681210022FFF7B8FBB1E12046CC
:102B600094F878120AF0D5FC20B14FF4CA73A4F897
:102B70009C323CE7204604F5207194F884220AF048
:102B8000D8FC40B140F29713A4F89C3294F8743208
:102B9000002BEFD130E7204600210AF0BAFC40B10B
:102BA0004FF4CC73A4F89C3294F87432002BF2D119
:102BB00022E7204606210AF0ACFC40B140F299130E
:102BC000A4F89C3294F87432002BF2D114E720461A
:102BD0001F4906220AF0ADFC40B14FF4CD73A4F8B2
:102BE0009C3294F87432002BF1D105E72046032182
:102BF0000AF08FFC40B140F29B13A4F89C3294F889
:102C00007432002BF2D1F7E62046217D0AF081FCD8
:102C100000B34FF4CE73A4F89C3294F87432002BB6
:102C2000F2D1E9E6DE5B002038420020E15B0020C3
:102C3000D95B0020DC5B0020D65B0020DF5B00203E
:102C4000E05B0020DA5B00203C430020DB5B0020DF
:102C50000CEF2000E18A2046090A0AF05AFC40B134
:102C600040F29D13A4F89C3294F87432002BF1D1F9
:102C7000C2E62046A17D0AF04CFC40B14FF4CF7370
:102C8000A4F89C3294F87432002BF2D1B4E62046BA
:102C900000210AF03EFC40B140F29F13A4F89C32A0
:102CA00094F87432002BF2D1A6E62046217C0AF07B
:102CB00030FC40B14FF4D073A4F89C3294F87432D5
:102CC000002BF2D198E62046E168228A0AF031FC16
:102CD00040B14FF4D173A4F89C3294F87432002BB5
:102CE000F1D189E6237D5A0704D494F91430002BDE
:102CF0005BDA5EE0204600210AF00BFC40B14FF4A5
:102D0000D273A4F89C3294F87432002BF2D173E69B
:102D1000204694F840100AF0FCFB40B140F2A513A5
:102D2000A4F89C3294F87432002BF1D164E620466A
:102D3000E16BB4F840200AF0FCFB40B140F2A7136D
:102D4000A4F89C3294F87432002BF0D154E620465B
:102D500000210AF0DEFB40B14FF4D473A4F89C329A
:102D600094F87432002BF2D146E6204694F84810CD
:102D70000AF0CFFB40B140F2A913A4F89C3294F8BA
:102D80007432002BF1D137E62046616CB4F848204C
:102D90000AF0CFFB0028A8D040F2AB13A4F89C3275
:102DA00094F87432002BEFD126E6237D5B0642D4E3
:102DB0002DE0204600210AF0ACFB40B140F2B313F5
:102DC000A4F89C3294F87432002BF2D114E6204619
:102DD00094F854100AF09DFB40B14FF4DA73A4F854
:102DE0009C3294F87432002BF1D105E62046216D17
:102DF000B4F854200AF09DFB0028D6D040F2B71357
:102E0000A4F89C3294F87432002BEFD1F4E52046FC
:102E10000AF06EFB072384F86030201D4FF4A06198
:102E20000AF0CFFC04F595600AF021FB4FF4E5733E
:102E3000A4F89C322DE0204600210AF06AFB40B144
:102E40004FF4DD73A4F89C3294F87432002BF2D165
:102E5000D2E5204694F85C100AF05BFB40B140F2EA
:102E6000BB13A4F89C3294F87432002BF1D1C3E563
:102E70002046A16DB4F85C200AF05BFB0028C6D0A8
:102E80004FF4DF73A4F89C3294F87432002BEFD126
:102E9000B2E594F8993204F10408012B07D14046B9
:102EA0000AF0A1FC48B12046FFF7EEFC05E04046E1
:102EB0000AF099FC0028F2D19EE504F595600AF02D
:102EC000D6FA0023A4F89C3241E5BF4B1D6095F86B
:102ED0006030092B7FF442AD95F87432012B61D13B
:102EE0000023A5F89C320BE0B84B9DF807101B7827
:102EF0008B4200F03F84B64B1B788B4240F24484F7
:102F000040F2E512B04F3C68B4F89C32934212D0C4
:102F1000B3F5F37F01D22BB137E01BD0B3F5F87FC7
:102F20002AD032E02046E0210AF0F3FA48B140F21C
:102F3000E513A4F89C3294F87432002BF2D100F01F
:102F40002EBC204600210AF0E4FA48B14FF4F37396
:102F5000A4F89C3294F87432002BF2D100F01FBC1C
:102F600020460AF0C5FA201D4FF480710AF029FCB2
:102F70004FF4F873A4F89C3294F874322BB9201DE6
:102F80000AF031FC002800F00A840023A4F89C32E7
:102F900038680AF08EFA386801210DF10702FFF750
:102FA00095F9DBE42A468B4803F024F9D6E4864BF6
:102FB0001D6095F87432012B7FF4D7AC95F8603022
:102FC000082B7FF4D2AC0023A5F89C320BE07F4B9A
:102FD0009DF807101B788B4200F0CC837C4B1B784C
:102FE0008B4240F2ED8340F2D221774A14681746B3
:102FF000B4F89C328B4214D001D84BB148E040F277
:10300000D32293421BD040F2DE2293422FD03FE0E6
:103010002046C0210AF07DFA40B140F2D223A4F844
:103020009C3294F87432002BF2D1D3E32046002175
:103030000AF06FFA40B140F2D323A4F89C3294F81E
:103040007432002BF2D1C5E320460AF051FA012375
:1030500084F8383004F595600AF009FA201D4FF421
:10306000A0610AF0AEFB40F2DE23A4F89C3294F893
:10307000B0343BB104F595600AF0F9F9002384F807
:10308000383005E0201D0AF0AEFB0028F2D1A1E3A4
:103090000023A4F89C3268E44B4B1D6095F8743211
:1030A000012B7FF469AC95F86030082B7FF464AC99
:1030B0000023A5F89C320BE0444B9DF807101B78C9
:1030C0008B4200F05783424B1B788B4240F2938334
:1030D00040F216223C4B1C689846B4F89C7297420A
:1030E00000F084800ED8B7F5047F48D001D817B31C
:1030F000E6E040F213239F4252D040F215239F4254
:103100005CD0DDE040F21B239F4200F09F80B7F5CA
:10311000077F08D2B7F5067F78D040F219239F4287
:1031200000F08380CCE000F0A08040F225239F4295
:1031300000F0B080C4E0B4F88C228223053284F819
:103140007832C4F87C2204F5207004F521710AF06D
:103150007BF994F88432042B07D9204681213A4622
:10316000FFF7B4F8A4F89C7206E4204694F87812AD
:103170000AF0CFF940B14FF40473A4F89C3294F8EC
:103180007432002BF1D140E3204604F5207194F80D
:1031900084220AF0CEF940B140F21323A4F89C3205
:1031A00094F87432002BEFD12FE3204600210AF06F
:1031B000B0F988B140F21523A4F89C3294F8743227
:1031C000002BF2D121E300BF38420020DE5B00205B
:1031D000D75B002040400020204694F886120AF079
:1031E00098F940B140F21623A4F89C3294F8743256
:1031F000002BF1D109E3B4F88C122046090A0AF039
:1032000088F940B14FF40673A4F89C3294F87432F4
:10321000002BF0D1F9E2204694F88C120AF079F9EB
:1032200040B140F21923A4F89C3294F87432002B78
:10323000F1D1EAE22046D4F88812B4F88C220AF0E0
:1032400078F940B140F21B23A4F89C3294F8743210
:10325000002BEFD1D9E2204694F898120AF059F9E0
:1032600040B14FF40773A4F89C3294F87432002BE9
:10327000F1D1CAE220460AF03BF9201D4FF4A061CB
:103280000AF09FFA04F595600AF0F1F840F2252360
:10329000A4F89C3294F89932271D012B0AD13846A4
:1032A0000AF0A1FA04F595600AF0E1F8002384F829
:1032B0006A3005E038460AF096FA0028EFD1A4E219
:1032C0000023A4F89C32FFF757BBC84B1D6095F84C
:1032D0007432012B7FF457AB95F86030082B7FF4E4
:1032E00052AB0023A5F89C320BE0C14B9DF80710B0
:1032F0001B788B4200F03E82BE4B1B788B4240F223
:103300009682BA4B1C689846B4F89C72B7F5157F44
:103310007DD011D840F24F239F424AD0B7F5147F99
:1033200001D20FB3CEE040F251239F4252D040F27F
:1033300053239F425CD0C5E040F257239F4200F0E8
:103340008580B7F5167F04D240F256239F426ED097
:10335000B8E040F259239F4200F0898040F2622396
:103360009F4200F09980ADE0B4F88C22A223043291
:1033700084F87832C4F87C2204F5207004F52171B9
:103380000AF062F894F88432042B08D9204681218F
:103390003A46FEF79BFFA4F89C72FFF7F4BA20466A
:1033A00094F878120AF0B5F840B140F24F23A4F82F
:1033B0009C3294F87432002BF1D142E2204604F59D
:1033C000207194F884220AF0B4F840B140F25123FD
:1033D000A4F89C3294F87432002BEFD131E22046ED
:1033E00000210AF096F840B140F25323A4F89C3231
:1033F00094F87432002BF2D123E2204694F886121E
:103400000AF087F840B14FF41573A4F89C3294F891
:103410007432002BF1D114E2B4F88C122046090A60
:103420000AF077F840B140F25623A4F89C3294F8A1
:103430007432002BF0D104E2204694F88C120AF08A
:1034400068F840B140F25723A4F89C3294F87432E3
:10345000002BF1D1F5E12046D4F88812B4F88C2283
:103460000AF067F840B140F25923A4F89C3294F86E
:103470007432002BEFD1E4E120460AF039F8201D28
:103480004FF4A0610AF09DF904F5956009F0EFFF93
:1034900040F26223A4F89C3294F89932271D012B44
:1034A0000AD138460AF09FF904F5956009F0DFFF6C
:1034B000002384F86A3005E038460AF094F90028C1
:1034C000EFD1BEE10023A4F89C32FFF75CBA474B72
:1034D0001D6095F87432012B7FF45CAA95F860307A
:1034E000082B7FF457AA0023A5F89C320BE0404B31
:1034F0009DF807101B788B4200F03C813D4B1B78F8
:103500008B4240F2B081394D2C68B4F89C32B3F54F
:10351000267F00F09C8011D840F2932293425FD026
:10352000B3F5257F01D223B309E140F295229342FE
:103530006ED040F2972293427AD000E140F29D2271
:10354000934200F0B58009D840F29A22934200F0ED
:103550008F80B3F5277F00F09C80F0E040F2A2223C
:10356000934200F0B68040F2B322934200F0D18043
:10357000E5E094F8982294F89A12530043F030034F
:10358000DBB2012984F8783204BF43F0010384F8E8
:103590007832B4F88C12D4F894320B440AB902335E
:1035A00000E00433C4F87C3204F5207004F5217186
:1035B000D4F87C2209F048FF94F88432042B05D912
:1035C000204681210022FEF781FEB8E0204694F8D3
:1035D000781209F09EFF78B140F29323A4F89C3250
:1035E00094F87432002BF1D147E100BF384200203B
:1035F000DE5B0020D75B0020204604F5207194F8A4
:10360000842209F096FF40B140F29523A4F89C3241
:1036100094F87432002BEFD12FE1B4F88C122046CD
:10362000090A09F076FF40B140F29723A4F89C32D2
:1036300094F87432002BF0D11FE1204694F88C12DC
:1036400009F067FF40B14FF42673A4F89C3294F858
:103650007432002BF1D110E12046D4F88812B4F86E
:103660008C2209F066FF40B140F29A23A4F89C3204
:1036700094F87432002BEFD1FFE094F89832E3B164
:103680002046002109F045FF40B14FF42773A4F80C
:103690009C3294F87432002BF2D1EEE0204694F87C
:1036A000861209F036FF40B140F29D23A4F89C3207
:1036B00094F87432002BF1D1DFE02046D4F8901258
:1036C000B4F8942209F035FF40B140F2A223A4F8E7
:1036D0009C3294F87432002BEFD1CEE0204609F0F2
:1036E00007FF201D4FF4A0610AF06BF894F89822B0
:1036F0002AB96C4BE06E197802F07CFD18E0012AC3
:1037000016D104F5956009F0B2FE40F2B323A4F897
:103710009C3294F89932271D012B03D138460AF0C8
:1037200062F805E038460AF05EF80028F6D1A4E019
:1037300004F5956009F09BFE002384F86A300023AD
:10374000A4F89C32FFF726B9574B9DF807101B7859
:103750008B420FD0554B1B788B423FF62BA9544B15
:103760001B788B42FFF426A9524B186802F042FDE9
:10377000FFF720B9504B0A221B68022083F8602013
:103780000022A3F89C2289E0494B1B788B42FFF46E
:10379000B7AB484B186802F02DFDFFF7B1BB3B6893
:1037A00093F860300A2B3FF4F3AB424B00221868C9
:1037B000424B197802F01EFD40F2A743FFF72AB9E9
:1037C0003B4B1B788B42FFF40EAC3A4B186802F06F
:1037D00011FD08E43B6893F86030082B7FF4C5A81E
:1037E000344B00221868354B197802F003FD40F283
:1037F000B943FFF70FB92E4B1B788B42FFF468AC2F
:103800002C4B186802F0F6FC62E4D8F8003093F80C
:103810006030082B7FF4B0A8264B00221868274B95
:10382000197802F0E7FC40F2C643FFF7F3B8204BEB
:103830001B788B42FFF465AD1E4B186802F0DAFC72
:103840005FE5D8F8003093F86030082B7FF49BA830
:10385000184B00221868194B197802F0CBFC40F283
:10386000D343FFF7D7B8124B1B788B42FFF44BAE14
:10387000104B186802F0BEFC45E62B6893F86030E8
:10388000082B7FF487A80B4B002218680B4B197884
:1038900002F0B0FC4FF49C63FFF7BCB802B0BDE887
:1038A000F08100BFD26D0020DE5B0020D75B0020DE
:1038B000D85B00203C43002038420020DB5B002026
:1038C00070B51E4690F860300446082B2BD190F856
:1038D0006A5001214DBB80F86A10B0F868109DF85D
:1038E0001830023189B2A0F86810A0F8861280F86A
:1038F0009A32C0F88822104609F02AFD049BA4F8E9
:103900008C02C4F894329DF81430C4F8906284F8A4
:103910009832074B84F8995219782246054802F0EC
:1039200069FC284670BD812070BD084670BD00BF8F
:10393000DA5B002040400020F7B500F0CFFC00F03B
:10394000C3FD00F01FFD00F0D1FA01F005FC09F005
:1039500036FF00F0B1FD00F0C9F8012009F01CFEAF
:1039600002F0E4FB00F0A6FC002000F0B7FB012011
:1039700000F0B4FB4949002000F086FC02F008FD8D
:1039800009F041FE042009F007FE454809F068FEF1
:10399000444809F065FE00F04BFA002002F0A0FD5B
:1039A00001F0CEFA4048002102F04CFC02F0F0F9A0
:1039B00009F01EFE00F018FE00F034FE08F004F8D6
:1039C0006846082101F00CFC9DF807309DF8067050
:1039D000364C43EA07276B4603CB206061603448CE
:1039E00001F0E4FD0025615D3248013501F0DEFDA6
:1039F000072D2E4EF7D1304DF179304801F0D6FD2C
:103A0000EC6A4AF6CD310220A04739460320A04790
:103A10001A210120A047694608226B6B0B209847AA
:103A2000274801F0C3FD274B186809F019FE264806
:103A300001F0BCFD254B186809F012FE244801F086
:103A4000B5FD244B186809F00BFE234A3368136058
:103A50007368536007F0D2FC2048002102F0F2FBAB
:103A60001F48002102F0EEFB1E4B01219B688120C4
:103A7000984709F073FE1C4809F066FE00F020FC30
:103A8000022009F089FD00F021FC02F067FB10F034
:103A9000FF0FF8D101F0F8FAF5E700BF4D63200001
:103AA00020EF20003AEF200098400020DD6D00203C
:103AB0005FEF20007DEF200040EE20003CF620006C
:103AC00083EF200098EE20008AEF2000A4EE200073
:103AD00091EF2000CCEE2000D46700203C41002074
:103AE000B840002058ED2000FCEE200008B500F0A2
:103AF0003FF9024B00221A7008BD00BFE25B0020B4
:103B0000024A13781843107000F056B9E25B0020A7
:103B1000034A137823EA0000107000F04DB900BF8B
:103B2000E25B002008B50B4B1B78184203D020281D
:103B300004D0042804D04FF0004008BD052000E068
:103B40000220054B80211A7800F0E8FC20EAE070A2
:103B500000B208BDE45B0020E35B0020802810B5C4
:103B60000C4603D0B0F5807F25D031E08B1E222B90
:103B70002ED8C943184B1A680A401A60174A1368AE
:103B80000B401360A20604D500200521012200F09D
:103B9000A9FC630704D500200221012200F0A2FC49
:103BA00000F0B4FC0E4B30221A700E4B187804440F
:103BB0001C70002010BDC8B2102806D001D820B15A
:103BC00006E0202801D0302802D1054B187010BD26
:103BD0004FF0004010BD00BF20940D4000940D40F8
:103BE000E35B0020E45B002020B1012805D1044BF9
:103BF00018787047034B186870470020704700BF63
:103C0000E55B002020900D4010B5094A0020137894
:103C100001331370074B197802F0ECFABDE810403D
:103C2000054B06481968064A002302F0E7B800BFB2
:103C3000E55B0020D36D0020684200204042002058
:103C4000093C2000812810B50C462AD0B0F5807FB1
:103C500039D0802839D102F061FA1D4B1D4A187005
:103C60001368002023F00803136052F8203C03215E
:103C700023F0080342F8203C52F81C3C23F00803D0
:103C800042F81C3C52F8183C43F0080342F8183C38
:103C9000042200F027FC10480021032200F0C4FB9E
:103CA00013E00E4B1A6831B142F008021A6000208E
:103CB00000F032FB05E022F008021A60084600F02E
:103CC00037FB204610BD064B1960012010BD00BF18
:103CD000D36D002020940D40E53C200010940D4051
:103CE0006842002008B50F4809F07DFDC0B10821E9
:103CF0000C4809F066FD0C4B196861B10B4B0022B2
:103D00001A700B4B0B481B681BB90B4A02F076F874
:103D100001E002F0B5F8BDE80840084802F0B4BB85
:103D200008BD00BF6042002068420020E55B002023
:103D300020900D4040420020093C200058ED20001A
:103D4000084A136823F00403136052F8203C43F040
:103D5000040342F8203C044B00221A60034B01226A
:103D60001A70704720C40D4010C00D40E65B002063
:103D70000D4A0E49136823F0C003136052F8203C2B
:103D800043F0C00342F8203C094B00221A600B6844
:103D900023F010030B6051F8203C43F0100341F86E
:103DA000203C044B1A60704720A40D4020C40D40F5
:103DB00000A30D4040C00D4000F0020202F0FF01E0
:103DC0000B4B12B1FF221A6000E0196000F00402F0
:103DD00002F0FF01074B12B1FF221A6000E01960E8
:103DE00010F00100044B1ABFFF221A6018607047E0
:103DF00000A20D4000A10D4040C00D40044B1868CA
:103E0000C0F30720030904BF1030C0B2704700BFE1
:103E10001C300D40054B1868C0F3C21001289ABF32
:103E2000C0F1020040034FF40040704714300D40D1
:103E30002DE9F04788B0FFF7E1FF174B48251C68D4
:103E4000AB68074698476B68804698470646FFF779
:103E5000E1FF054600F0D0FA824600F0D9FA81462B
:103E600000F086FAB60AC4F34003AD0A04F0010478
:103E700002930690009601950394CDF810A0CDF81A
:103E800014904146C7F3071207F00F03034801F0EF
:103E90008DFB08B0BDE8F0871C300D40B4EF20006A
:103EA000F8B500F083F80F4B0024D3E900673A46D9
:103EB000B04238BF7A1C15460443C3E90045DFF819
:103EC00028E0DEE90001821B61EB070312196B4158
:103ED000CEE9002302F08CF818B1BDE8F84002F0FA
:103EE00017B8F8BD28420020304200200F4B104A7E
:103EF0001A6053F8042C42F0050243F8042C53F8DE
:103F0000042C42F0020243F8042C0A4A136843F0DE
:103F100001031360084B00221A60042243F80C2CA2
:103F2000012243F8082C0F22DA62704714E000E007
:103F300047E8010008200D400C000340034BD3E983
:103F40000023100A40EA0360704700BF28420020A7
:103F5000034BD3E90023D00B40EA4340704700BF36
:103F600030420020054B18601C3B1A6842F00102E9
:103F70001A601A68D207FCD4704700BF28000340BB
:103F800010B5064C236823F001032360FFF788FF78
:103F9000236843F00103236010BD00BF10E000E080
:103FA000014B1868704700BF6C420020074B084A5D
:103FB000196804331B681268120442EA0323054A95
:103FC0000B43106843EA0060704700BF40500D404B
:103FD00048500D404C500D4010B50446114B1B6825
:103FE000DB07FBD509F013FBFFF7E0FF231A062BD5
:103FF000D8BFC41D0C4B220E1A60C4F3074243F80D
:10400000042CC4F3072243F8082CE2B243F80C2C2A
:1040100009F0F9FA054B91201C60BDE8104000F052
:104020007BB900BF50500D404C500D406C420020F9
:1040300008B501F00FF8064B002291201A6000F03D
:1040400083F9912000F074F9BDE8084002F01EB930
:104050006C420020064B1B681B075FBF054B1868AE
:1040600080F00800C0F3C00048BF0020704700BFC8
:1040700018C0004018D00040164A38B52C2303FB66
:1040800000234FF6BF72DC680546236C62649BB266
:1040900013F050020DD0A369DB0609D40E4B53F880
:1040A00025301BB12068C0B29847F4E72368F2E7D7
:1040B00038BD13F4D06F0BD04FF440732363FF234C
:1040C0006360E36AE262E362236B43F0010323630C
:1040D00038BD00BF68ED2000704200202DE9F04F90
:1040E000012885B0064600F2BF802C244443604B73
:1040F0001D1995F920A005F12007BAF1000F994686
:10410000C0F2B28095F92230002BC0F2AD80594840
:1041100001F012F8584A59F804301168EC680B4362
:10412000136051686B6895F921B00B435360916837
:10413000AB6895F822800B4393600023C4F8C83F16
:104140002B690BEBCA021A6095F823305FFA88FCE2
:1041500001939DF80430604619462A7DCDF80CC0C5
:10416000029300F0C9F9029BDDF80CC019466046C5
:10417000082200F0B7F94FFA88F840494FEA0838AA
:104180009DF9042058F80100012303FA02F20243CA
:1041900048F801204FEA0A3A5AF8010003FA0BF2F4
:1041A00002434AF801205022A263A26B95F8240032
:1041B00042F4D062A263022262634FF4407222632F
:1041C000AA696262EA69A2627022E26242B2002ACD
:1041D0000C4614DB95F92510294D41EAC2012960EE
:1041E0007979120315594FB2BB402B43135100226A
:1041F00000F078F9234A136843F4004313602C233A
:1042000003FB069393F8265020336FB2002F1CDB7C
:1042100093F807A0EDB25FFA8AF8284641460122DA
:104220003F0300F069F94FFA8AFA3A59012303FA79
:104230000AF313433B5108222846414600F052F945
:10424000104A136843F4804313602C2303FB069643
:10425000F26896F82800136B43F00103136305B06E
:10426000BDE8F04F00F058B805B0BDE8F08F00BFD2
:1042700068ED20005540200028200D4020940D407E
:1042800004410D4030D0004001289CBF014B43F851
:104290002010704770420020012808D8044B2C22BF
:1042A00002FB0030C3689A699206FCD4196070471B
:1042B00068ED2000014B00221A60704700500D404D
:1042C000014B08221A60704700500D40024BA0229B
:1042D0001A6050221A60704700500D40074A084B80
:1042E0001A60084B80321A60074B80321A60074B05
:1042F00080321A60064B074A1A60704700E100E0FE
:1043000084420020784200207C420020804200202D
:1043100008ED00E000202000044B41091A6800F07D
:104320001F000123834042F821307047844200205F
:10433000044B41091A6800F01F000123834042F832
:104340002130704778420020044B41091A6800F080
:104350001F000123834042F8213070478042002033
:10436000024B1868C0F38150704700BF04200D4015
:1043700008B5FFF7F5FF024B53F8200008BD00BF5A
:10438000C0ED200038B5164D164C2B68032023F0E5
:1043900040032B602368062123F0400323600122A1
:1043A00000F0A0F82B68012223F080032B60236823
:1043B000032023F080032360072100F093F80A4ACA
:1043C0000A4B1A600A4B0B4A19680A40002AF9D1B5
:1043D0001A685101FCD41A685201FCD538BD00BFDF
:1043E00020C40D4000C40D400101020000200D401A
:1043F00004200D4000000101034B04481B6803F03A
:1044000007031841704700BF04200D400048E80131
:10441000034B04481B68C3F302231841704700BFD5
:1044200004200D400048E801024B02EBC10243F8B2
:104430002200704788420020F8B507460E46094D15
:10444000002405EB411547FA04F3DB07E1B204D57C
:1044500055F824300BB1304698470134082CF2D17E
:10446000F8BD00BF884200202DE9F04780464FEAA2
:104470000837DFF8409007F1804505F5592500F031
:10448000E9FDD5F8186457F809404FEAC80A24FA3C
:104490000AF446EA0400E4B2C0B24146F6B204FAB5
:1044A0000AF4FFF7C9FFC5F81C6447F80940BDE8E6
:1044B000F08700BF18970D4002480021802208F0C5
:1044C0009BBE00BF88420020034A044B1A60044B85
:1044D000803A1A60704700BF80400D400C430020B6
:1044E00008430020034B01EBC0011B6843F8212067
:1044F000704700BF0C430020034B01EBC0011B6859
:1045000043F82120704700BF08430020024A136887
:1045100043F030031360704700700D400E2870B5F3
:104520000BD1164B164E1C6844F002051D60356811
:1045300025F03F0343F001033360124E336823F04C
:10454000FF031A431143014331600F4B1B681B06E5
:10455000FBD50E4B0E4A1B6812680E2803F0FC03B5
:1045600043EA022308BF064A9BB204BF1560034A10
:104570009BB208BF146018B270BD00BF3400014484
:10458000F486084008700D4000700D400C700D401E
:1045900010700D40024B1868B0FA80F04009704767
:1045A00000B7084010B58F20064CFFF7CDFE8F20D6
:1045B000FFF7BEFE206818B101F05CFE0023236007
:1045C00010BD00BF10430020064A136843F00203E9
:1045D0001360536843F002035360936843F002038F
:1045E0009360704748200D4007B50C4800F0A4FDCB
:1045F000FFF7EAFF0A4B1A6842F002021A60002233
:104600000192019A0F2A02DC019A0132F8E71A6836
:1046100022F002021A6003B05DF804FB9545200009
:1046200054200D40064A136823F0020313605368B8
:1046300023F002035360936823F0020393607047F2
:1046400048200D40084B93F90020002A09DB074A57
:10465000ED2111601160E32111601A7862F07F0290
:104660001A700120704700BFEA5B002038880840BC
:104670000B4B1A689207FBD41B685B065FBF094BA4
:10468000ED221A601A60084B1B6813B1054BEF222C
:104690001A60064A0120137803F07F0313707047F5
:1046A0004C860840388808402C860840EA5B002089
:1046B00038B5A0F10B04E3B20F2B054613D80B4B12
:1046C0001B6813F03F0302D0FFF7D2FF012304EB76
:1046D0008404074A0B3414600BB1FFF7B3FF054B9A
:1046E000E8B21D7000E0FF2040B238BD48860840A7
:1046F0003C8608401F42002010B50B4B1B689906F2
:1047000003D1FFF79FFF012300E00023074A12684F
:10471000D207FBD5064A1468C4F300140BB1FFF7A7
:10472000A7FF204610BD00BF4886084064860840A9
:104730004C860840044B186800F02200A0F12003CA
:1047400058425841704700BF4C860840024B1868D9
:1047500000F04000704700BF4C86084038B50C465A
:10476000002900F08880102800F28780DFE800F040
:10477000090F1A1C23394253586F738585787A7C48
:104780007F003F4B1B68003318BF012370E03D4B97
:1047900005221B6803F07F030B3B93FBF2F30B3303
:1047A000DBB265E0384B00E0384B1A68043B1B680D
:1047B00043EA02235CE000230B60354B354A1B685B
:1047C00003F001030B601268900644BF43F002033C
:1047D0000B60314B1B78002B4BD00B6843F004036C
:1047E00046E02E4B00201B780860002B41D00123AF
:1047F0000B6038BD2A4B1A680023D2B2294901EB5D
:10480000C3000079904202D851F8333030E00133D0
:104810000E2BF3D128E0244B1B685BB2493B27E009
:10482000224B1B68990603D1FFF70CFF012300E020
:1048300000231F4A1268D207FBD51E4A1568493D5E
:10484000EDB20BB1FFF714FF6DB2256011E01A4B0A
:1048500093F900300CE0194B1B7803F07F0307E05D
:104860000B2305E01A2303E06FF0170300E0072392
:104870002360002038BD022038BD012038BD00BFB4
:104880002C8608403C860840CC850840D4850840EA
:104890000086084024860840E95B00201E42002074
:1048A00040860840D0ED20005886084048860840E1
:1048B0006486084060860840E85B0020E75B0020D3
:1048C00038B505460C46134B1B689B07FBD4124BAF
:1048D00093F90030002B01DBFFF7B4FE0F4BEE2203
:1048E0001A60691E1A60A21C43F8102C2144022091
:1048F00000F03EFB013C0A4924012143022000F064
:1049000049FB022000F050FB022000F065FB002074
:1049100038BD00BF4C860840EA5B0020388808405C
:1049200002C001C0F8B5214B93F90030002B0DDB1C
:10493000FFF73CFB0446FFF785FEFFF737FB6FF000
:1049400009031B1BC342F8D4012600E00026184BC4
:104950001B7823B9174D2B68990604D405E0FFF79F
:10496000CBFE0028F6D10220F8BD134CE9232360CA
:1049700004272B689A0707D4013F17F0FF0703D0DD
:104980000620FFF7EFFAF4E72B689B0704D4EE2329
:1049900023602360012403E02C6814F00204FBD19F
:1049A0000EB1FFF765FE2046F8BD00BFEA5B0020B0
:1049B0001E4200204C86084038880840044B1A6884
:1049C00010B142F0010201E022F001021A607047CA
:1049D000008608400B280DD1082A0DD161B1074B84
:1049E000083111F8012D43F8042F054A9342F8D1FC
:1049F000002070470120704702207047A4850840BE
:104A0000C485084070B5304E336813F0400308D0B9
:104A10002E4D2B68DCB21B0605D52D4BED221A60FE
:104A20001A60002070BD042CF7D9023C8C42F4DCE3
:104A3000E4B2032C21D001190139032000F0A0FABF
:104A4000631E24491B010320194300F0A3FA03202D
:104A500000F0AAFA032000F0BFFA032000F0C8FA21
:104A60000028FAD129681C4B4939C9B219702B6842
:104A70001A4D18062B70D0D506E02B6803702B68F2
:104A800043702B688370EDE749B289B2042006F0C9
:104A900071FF2978032001F07F0106F06BFF104BB6
:104AA0001B7873B933685A060BD5074B1B681B0676
:104AB00003D50C4801F0DEFB03E0054BED221A6044
:104AC0001A60204670BD00BF4C8608402888084008
:104AD0003888084002C0010CE85B0020E75B00203A
:104AE000E95B0020604000201E4B1870002831D088
:104AF0001D4B1B681B03FBD51C4B1A6842F00202BE
:104B00001A601A6842F001021A601A6817495007C1
:104B1000FBD50A6822F001020A601968134A4907A6
:104B2000FBD4116841F002011160116841F00101EC
:104B300011601A685207FCD50D4A8D20136823F0C6
:104B400004031360D2F8A83123F00403C2F8A8319B
:104B5000FFF7EEBB064A8D20136843F00403136091
:104B6000FFF7DABBE95B002004200D400488084011
:104B70008C86084010B50C4607285CD8DFE800F0AA
:104B8000040F1B1F263C4256012903D1FFF75AFD93
:104B9000002010BD002950D1FFF76AFDF8E7A1F110
:104BA0000B030F2B49D8C8B2FFF782FD431C0CBF83
:104BB0000320002010BD8CB2E2B2214B02E08CB287
:104BC000204BE2B2240A1A605C60E1E731F007038F
:104BD00033D101F00100FFF7F1FE1B4B14F0020F7F
:104BE0001A68C4F3800014BF42F0200222F02002B1
:104BF0001A60FFF779FFCBE731F001001DD1134BAD
:104C0000197010BD01F118031F2B16D80D23104980
:104C1000DA0051F83300844204DC8B181A790D4B0A
:104C20001A60B5E713F1FF33F1D2B1E7CCB20A4B0A
:104C300049341C60ACE7012010BD022010BD00BF4C
:104C4000C8850840D0850840248608401E420020C0
:104C5000D0ED20004086084058860840F8B5294F1E
:104C60003D7815F001054AD1274B01241C605C609A
:104C70009C60A3F59323A3F51473F8221A6009220C
:104C8000C3F89021152270331A6003F59B230B2281
:104C900003F59E731A60A3F59B23A3F5F0734022DE
:104CA0001A601A687F2642F020021A60D52243F863
:104CB0001C5CDE62DA61154B1878FFF7F9FC144BC7
:104CC0008E201E60FFF728FB022000F079F91149C1
:104CD000022000F055F9032000F072F90D4903207D
:104CE00000F046F90C4B1878FFF7FEFE0B482946FA
:104CF00001F0A8FA3B78204623433B70F8BD002022
:104D0000F8BD00BFEA5B0020A8200D401F42002034
:104D10009486084028880840E95B00206040002015
:104D200038B503880446CBB140F20342934203D026
:104D300000230380032038BD194B18781A4628B188
:104D40001B7873B1174B1B7858060AD5822908D1F6
:104D5000137843B1134B1A78520614D440F203432C
:104D60002380012038BD06F0ABFD06F03FFD802119
:104D7000FFF748FE0028EDDD80B206F01BFD0A4B70
:104D80001B699847E6E700221A70084B1D68FFF779
:104D90006FFCFFF763FFAB06E0D0FFF753FCDDE7E6
:104DA000E95B0020EA5B0020CCEE2000488608404A
:104DB0000B282DE9F84F8A4611D1082A40F082804D
:104DC00000297FD0414B01F1FF3A53F8042D0AF836
:104DD000012F3F4A9342F8D10020BDE8F88F0C28FC
:104DE0006DD1042A6ED100296CD03A493A480B683B
:104DF000DFF8EC9023F007030B600368DFF8E4B002
:104E000043F008030360DBF80040D9F800200B688A
:104E1000DFF8D4C0DFF8D48023F070030B60D8F83B
:104E20000050DCF80030E4B2120244EA036392B2AC
:104E3000DFF8BCE01A43EBB242EA03430024DEF899
:104E4000002044EA03060B68D5B223F0070343F0C1
:104E500001030B6003682F4643F008030360DBF88F
:104E60000000D9F800200B68120223F0700343F011
:104E700010030B60D8F80050DCF80030C1B241EAF2
:104E8000036392B21A43EBB242EA0343DEF8002016
:104E900044EA03085FFA82F9FFF788F8B6EB0806E0
:104EA00067EB0907F903054641EA5641F0030B4A4F
:104EB000002307F0BDFD281ACAF800008CE7012086
:104EC000BDE8F88F0220BDE8F88F00BFC885084014
:104ED000A885084010880840048808400048E80178
:104EE0001888084014880840208808402488084012
:104EF0001C88084008B5054B1B7813B9044801F01D
:104F0000B9F9044B00221A6008BD00BFE95B00201C
:104F10006040002034880840064B07481A68042A7D
:104F20001FBF06490A7842F040020A7000221A6048
:104F300001F0A0B92C88084060400020EA5B002006
:104F400010B5094C00212046402208F055F9074BC6
:104F500001221A602E205C60FFF7DEF9BDE81040E8
:104F60002F20FFF7D9B900BF0040002004F00F4008
:104F700003289EBF014B00011950704700400020DC
:104F800003289EBF024B03EB00104160704700BF37
:104F90000040002003289EBF024B03EB00108160FD
:104FA000704700BF0040002003289FBF0349012332
:104FB0000A6883409CBF13430B60704728F00F4082
:104FC00003289FBF034901230A6883409CBF134302
:104FD0000B60704720F00F4003289FBF0349012357
:104FE0000A6883409CBF13430B60704714F00F4066
:104FF00003289FBF044B03EB0010806800F00700FC
:1050000088BF0020704700BF00400020024B4FF0D7
:10501000FF321A60704700BF04F50F40014B0122B8
:105020001A6070474CF00F40094B1A6812F4801F49
:105030001A46F9D1043B196821F4803119601168CE
:10504000C903FCD41A6842F400321A60704700BFEA
:1050500004200D4010B50A4B1A681C4612F0030FCD
:105060000CD0084B1A685101FBD41A685201FCD5C8
:10507000FEF786FFFFF7D8FF0023236010BD00BFB7
:1050800058200D4004200D4038B5254B1C6814F005
:105090003F0413D1234B53F8243023B1984768B110
:1050A0000134052CF6D1204D2B783BB1FEF778FF6B
:1050B0000446FEF77BFF201A092801D830BF38BD0F
:1050C000002CFBD0194B1A6822F400321A60184ADF
:1050D0001168C902FBD4196841F480311960136862
:1050E000DB03FCD5FEF762FF201A092803D8BDE8D0
:1050F0003840FFF799BF63280E4C02D92B78022B5A
:1051000000D00123236001F06BF820B1FFF78CFF82
:105110000023236038BDFEF743FF0028CED1F5E71A
:105120004886084014430020EB5B002000200D401F
:1051300004200D4058200D400023064A52F8231049
:10514000814206D011B942F8230070470133052B84
:10515000F3D1704714430020054B00221A60054A22
:10516000136843F004031360034B02221A70704764
:1051700058200D4010ED00E0EB5B002010B59020B2
:10518000064CFFF7E1F89020FFF7D2F8206818B13D
:1051900001F070F80023236010BD00BF28430020F9
:1051A00070B50E4C054626784EB93046C021FFF743
:1051B00073F830460D21FFF76FF8012323700020AC
:1051C000E9B2FFF769F80A2D05D10020C021FFF7E9
:1051D00063F800232370284670BD00BFEC5B0020FD
:1051E00030B5184B1A78431E3AB9174A1278122A6A
:1051F00003D1164A12784B2A03D001F5201127312A
:1052000017E04A0802F12814B4F1281F04D014F85A
:10521000015D03F8015FF7E701F520112731002355
:10522000934205DA11F801598418E5540133F7E780
:1052300030BD074A914204D011F8012903F8012F2B
:10524000F7E730BD2B0028002A002800290028009D
:105250002700280000200149FFF716B8F954200064
:105260002DE9F74F0388064633B1B3F5A57F11D07A
:10527000002303800320EFE0794A1380794A1380EA
:10528000794A1380794B01221A704FF4A573338049
:105290000120E1E082294FF0010AF9D1DFF8C8B11D
:1052A0007348BBF80050734B425D83F800A0432A5B
:1052B000DFF8AC81D94607462AD16A4B1A88954255
:1052C00026D2521B052A23DD00EB050C60466A49F5
:1052D0000622CDF804C007F083FEDDF804C00446C2
:1052E000B0B960462146062207F086FF5D4BA8F85C
:1052F00000401C805D4BABF8004083F800A05F4B82
:10530000185D013408F0BCF90D2CF8D1002497E0A9
:10531000B8F800209542F9D002D300231C462EE0B5
:1053200000247B5DDB2B04D055490B550134A4B21E
:1053300001E0012300E000230135ADB2954255D2D2
:10534000B4F5807F01D9002450E0002BE9D07B5DCB
:10535000DD2B01D1DB2102E0DC2BECD1C021484B5D
:105360001955E3E7B4F5807F1DD863B9795DDB2972
:1053700017D0434801550134A4B20135ADB2B5F59B
:10538000887FEFD310E07B5DDD2B01D1DB2102E0D4
:10539000DC2B04D1C0213A4B19550134A4B20023AF
:1053A000EBE70123E9E70024002188B290421DD2F7
:1053B000B4F5807FC7D863B17B5CDD2B01D1DB20E6
:1053C00002E0DC2B0DD1C0202D4B18550134A4B2C6
:1053D00007E0785CDB2806D0294D28550134A4B2BB
:1053E00002E0002300E001230131DEE7013292B246
:1053F000B2F5887F04BF0023A8F80030194B18BF0E
:10540000A8F80020B8F8002019888A4216D0104663
:1054100003468B4212D0F85CC02807D11948A8F87F
:105420000030A9F8002000F025FF09E001339BB20D
:10543000B3F5887F4FF00000EBD1E9E7A9F8002031
:10544000114B1C80002C3FF420AF104B1B6803B1A4
:10545000984704F0F9F918E703B0BDE8F08F00BFF2
:10546000A2570020A0570020A4570020ED5B002089
:10547000EE5B0020D86D002086F020008DF020002B
:10548000DC67002070400020C86700202C4300200B
:10549000014B1860704700BF2C43002038B5C02076
:1054A00008F0EEF8114B00241149A2B2098891428C
:1054B00016D93C2A04BF0F4B1B6818785D1CC02806
:1054C00004D1DB2008F0DCF8DC2004E0DB2802D18A
:1054D00008F0D6F8DD2008F0D3F801342B46E3E7D6
:1054E000C02008F0CDF8002038BD00BFDC670020E8
:1054F000C8670020E868002038B5264B1A781C469B
:10550000022A06D0032A12D1C02804BF01221A7031
:105510003DE000F12402D2B2012A06D903221A701A
:105520001D4B1A881D4B1A8031E0012302E0DB2855
:1055300001D102232370194B184D1A88511C89B2CE
:10554000B1F5887F08BF0021198015491B8809889B
:105550008B4205D1032323700F4B1B882B8016E051
:10556000104B5428985407D15B5C432B0FD10E4845
:1055700000F080FE012038BDC02808D1064B1888F5
:10558000824203D08142F2D11A80F0E72A800020C3
:1055900038BD00BFED5B0020A2570020A0570020BF
:1055A000A4570020EE5B0020704000200FB407B528
:1055B00004AA52F8041B0448019200F035F803B025
:1055C0005DF804EB04B07047804000201FB5084C24
:1055D0008DE80300114602A81A460294CDF80CD0BB
:1055E00000F022F8009B00221A7004B010BD00BF2A
:1055F00007D7200070B505460C46102C07D92B683C
:10560000686808491022984750B9103CF5E734B152
:105610002B6868682246BDE870400249184720465A
:1056200070BD00BF05F120002DE9F04F80468FB01E
:10563000069107920026069B1B78002B00F05F83E3
:10564000069B1C4613F8012B1AB9069B9C4203D1FA
:105650000FE0252AF5D1F8E7069BD8F80400E51AF3
:105660000699D8F800302A469847002840F02A8347
:105670002E442378002B00F042836378611C002BBA
:1056800000F03D8300240A4611F8013B2B2B11D07A
:1056900006D8202B11D0232B12D144F00804F2E7B6
:1056A0002D2B04D0302B0BD144F01004EBE744F049
:1056B0000104E8E744F00604E5E744F00204E2E709
:1056C000A3F1310108290DD8134600251A4613F815
:1056D000011BA1F13000092811D80A2202FB05158F
:1056E000303DF3E72A2B09D1079B01321D68191DB4
:1056F000002D0791B8BF44F0010400E000251378A5
:105700002E2B1CD15178531CA1F1300009280ED842
:10571000194600270A780B46A2F13000092801F14A
:1057200001010FD80A2303FB0727303FF2E72A299C
:1057300006D1931C079A111D0791176802E01346C2
:105740004FF0FF371A786C2A09D15A786C2A02D1A7
:1057500044F080040AE0013344F060040BE0682A5E
:1057600009D15A78682A03D144F02004023302E0B8
:10577000013344F040041A78642A3CD01FD8462AEA
:1057800048D00DD8252A5AD003D8002A00F0B78275
:1057900057E0412A4AD0452A53D144F4424450E0CC
:1057A000582A31D004D8472A4BD144F4A13448E0D8
:1057B000612A38D0632A44D144F4A06441E06E2ABF
:1057C0003AD007D8662A22D027D3672A28D0692A58
:1057D00011D036E0732A2CD006D86F2A11D0702A47
:1057E0002FD144F440742CE0752A07D0782A28D1B0
:1057F00044F4C85425E044F4245422E044F41064F2
:105800001FE044F488541CE044F4B24419E044F42A
:10581000007416E044F4844413E044F4024410E0BD
:1058200044F481340DE044F4C1340AE044F4E1343A
:1058300007E044F4806404E044F4E06401E044F4EC
:10584000C0640133069304F4E063B3F5806F00F0A5
:10585000AA8116D8B3F5807F2BD0B3F5407F7FF4B3
:10586000EAAE079BA04914F4804F03F104029F485D
:1058700018BF08460DF1330107920F461A6800233E
:10588000C5E1B3F5C06F08D0B3F5E06F00F0318229
:10589000B3F5A06F7FF4CFAE00E2D8F80030D8F8AF
:1058A0000400934901229847002840F00B820136FA
:1058B000C1E6002FACBF24F01004012714F40053FC
:1058C000039304F0E00337D0402B17D008D8DBB1A6
:1058D000202B2AD1079B1A1D079293F9002017E06D
:1058E000602B11D0802B20D1079B073323F00703B7
:1058F00003F108020792D3E900230AE0079B1A1D6F
:105900000792B3F9002003E0079B1A1D07921A685B
:10591000D317002A73F1000109DA524263EB430303
:10592000CDE900234FF0010933E000220023CDE947
:1059300000234FF000092CE0402B16D007D8CBB144
:10594000202B20D1079B1A1D07921A78EEE7602BB7
:1059500010D0802B17D1079B073323F0070303F1E7
:1059600008020792D3E90023E1E7079B1A1D07927B
:105970001A88DBE7079B00211A1D07921B6818464F
:10598000CDE90001D5E700220023CDE900234FF047
:10599000000904F4C053B3F5805F0CD0B3F5C05FC9
:1059A00033D0B3F5006F4FD1DDE900230DF1360A96
:1059B000CDE9042304E0DDE900230DF1360A15E00A
:1059C000DDE9042313433AD0DDE904010A22002370
:1059D00007F02EF8DDE9040130320AF8012D00232A
:1059E0000A2207F025F8CDE90401E9E752EA0301AC
:1059F00025D002F0070130310AF8011DD10841EA33
:105A00004371D8080A460346F0E7384B14F4804F38
:105A10000DF1360A344908BF1946DDE9002352EA80
:105A200003000CD002F00F00085C4FEA131E0AF8C6
:105A3000010D100940EA037002467346EFE70DF1CD
:105A4000360BCAEB0B0B03E00DF1360A4FF0000BDF
:105A500041F6080241F208035F4502EA04028CBFE6
:105A6000CBEB070700279A4202D1002F08BF01277E
:105A700041F608018A4207EB0B030DD1DDE9000175
:105A800050EA010208D01B4914F4804F1A4A4FF023
:105A9000020C18BF0A4602E04FF0000C6246039960
:105AA000A1B1B9F1000F0AD104F0060102290AD010
:105AB0000629124904BF4FF0010C0A4606E04FF0D8
:105AC000010C0F4A02E00F4A4FF0010C63449D4263
:105AD0008CBFED1A002514F0010922D1E30613D57D
:105AE0002F444D461DE000BFD0F02000E1F0200023
:105AF00003F12000F5F02000F2F02000FAF0200081
:105B0000F8F020008FEF200040462946CDF80CC069
:105B10000092FFF76FFD009ADDF80CC0002840F0FE
:105B2000D180BCF1000F0DD01146D8F8003062468C
:105B3000D8F80400CDF800C09847DDF800C0002870
:105B400040F0C0803C465E44102CD8F800300DD99F
:105B5000D8F804006C491022CDF800C098470028FE
:105B600040F0B080103CDDF800C0EDE75CB1D8F843
:105B7000040065492246CDF800C09847DDF800C012
:105B8000002840F09F80D8F80030D8F80400514633
:105B90005A4666449847002840F094803E44B9F144
:105BA000000F79D073E0079BD3F800A01A1D07926D
:105BB000BAF1000F09D05346994699F800200133F5
:105BC000002AF9D1CAEB090903E0DFF840A14FF040
:105BD0000609002F02DBB94528BFB9464D458CBFE9
:105BE000C9EB0505002514F0010405D140462946FE
:105BF000FFF700FD002865D1D8F80030D8F8040080
:105C000051464A46984700285CD14E443EE052EA4D
:105C1000030E0ED002F00F0E10F80EE04FEA131C28
:105C200001F801ED4FEA121E4EEA037E724663460A
:105C3000EDE70B467F1A01BF3022012701F1FF3348
:105C400001F8012C03377822BD4203F8012C4FF0F4
:105C5000300203F8022C88BFED1B4FF0230298BFDF
:105C6000002514F00104A3F1030903F8032C04D167
:105C700040462946FFF7BEFC20BBD8F80030D8F8D4
:105C8000040049463A469847E0B93E4424B14046AC
:105C90002946FFF7AFFCA8B92E44CCE4079B012DA1
:105CA00003F104021B688CBF05F1FF35002514F0D9
:105CB000010407928DF8203008D140462946FFF7AD
:105CC00099FC10B14FF0FF301AE02E44D8F80030A4
:105CD000D8F8040008A9012298470028F2D16F1CC7
:105CE0002CB140462946FFF785FC0028EAD13E4406
:105CF000A1E4079B1A1D1B6807921E609BE43046B7
:105D00000FB0BDE8F08F00BFC0F02000FCF0200015
:105D1000F8B50388064615462BB14A2B15D000234B
:105D200003800320F8BD174807F099FD04462CB105
:105D3000201DA16807F01AFD2468F8E7124B012224
:105D40001A704A2333800120F8BD8829FBD10D4801
:105D500007F085FD0446002CF3D0231D9D420ED193
:105D60000848214607F085FD084B62691F681A60E4
:105D7000A2691D460AB1E06990472F60E1E72468F7
:105D8000E9E700BF30430020FE5C00203C430020D8
:105D900010B5064B002406481C7007F05DFD214637
:105DA000BDE81040034800F04DBA00BFFE5C002083
:105DB000304300208840002070B50446E3610B4B5F
:105DC000049D1B786561A26143B1094D094B2E68A2
:105DD000201D2B6007F0CAFC2E6000E0A160214668
:105DE000BDE87040044807F058BD00BFFE5C0020CD
:105DF0003C430020884000203043002013B5034C72
:105E000024680094FFF7D8FF02B010BD3C43002087
:105E100070B5094B05461B783BB1084C084B26680A
:105E20000430236007F0ABFC26602946BDE87040D3
:105E3000044807F032BD00BFFE5C00203C43002058
:105E4000884000203043002070B5094B05461B7880
:105E50003BB1084C084B26680430236007F098FCDF
:105E600026602946BDE87040044807F016BD00BF13
:105E7000FE5C00203C43002088400020304300208E
:105E800010B5084B04461B781BB1043000F0B8F87D
:105E900001E0C36003612146BDE81040024807F0FD
:105EA000E8BC00BFFE5C00203043002010B5044673
:105EB000FEF74EF894E80C001344C01A024B9842C7
:105EC0008CBF0020012010BDFEFFFF7F10B50E4CDF
:105ED000236813B90D4A136010BDFEF72FF821682F
:105EE00091E80C001A44131A8A6842B192E8120031
:105EF0002144091A8B4228BF0B469268F5E71844E3
:105F0000024B186010BD00BF34430020384300200E
:105F1000014800F0AFB900BF98400020F8B50388F1
:105F200005462BB1592B09D0002303800320F8BD6F
:105F30001E4A136059232B800120F8BD872920D0E9
:105F40008229F7D1194F00263C68002CF2D0204658
:105F500007F049FC90B1E0688821224600F04AF938
:105F600050B9E060A3680EB1B36000E03B6000236D
:105F7000A360FFF7ABFFE5E7FFF7CAFF2646A4687B
:105F8000E3E70A490B680BB90B60D3E7D868904286
:105F900001D19B68F7E70B6099680029CAD0C868EF
:105FA00090420ABF89680B469960F5E734430020A8
:105FB00010B50446FFF7ACFFE3680B4A4BB113681A
:105FC0003BB1A34203D1094A1268DA6007E09B683B
:105FD000F6E7064B1B68E36013681460A360BDE836
:105FE0001040FFF773BF00BF344300203C43002044
:105FF000024B1868003018BF01207047344300205E
:1060000010B50B4A04461368984206D183681360A2
:1060100008E09A68A24203D01346002BF9D103E0AE
:10602000A2689A60FFF752FF0023A360E36010BDEF
:106030003443002038B5836804460D469BB10A48B6
:1060400004600220A07304F10C0098470238012874
:1060500001D9832D05D120462146BDE8384000F006
:1060600005B80123A37338BD3C4300202DE9F84354
:106070001C4A0446156889462B4690461A4E3768D6
:10608000A34204D00BB11B68FAE7BDE8F88334B330
:10609000A37BABB10023A37345B1AC4204D0284627
:1060A0008721224607F085FB2D68F5E7A3683BB101
:1060B0004C4505D0346004F10C0083212A469847F2
:1060C000D8F800309C4203D12268064B05E0134605
:1060D00023B11A68A242FAD122681A603760BDE87B
:1060E000F88300BF404300203C43002010B5094B1B
:1060F00000221A70084B1C685CB1E37B3BB10123A2
:106100000022A373E27320468221FFF793FF2468E5
:10611000F2E710BD015D002040430020024B1878DB
:10612000421C1A70704700BF025D0020064B8A2295
:106130001A70064A00231370054A1370054A13604B
:10614000054A1360704700BF025D0020FF5C00201D
:10615000005D0020404300203C4300202DE9F04139
:106160001A4D2B780BB1FFF7C1FF194C22783AB3C7
:10617000184E0C213378184F5943781817F80180BE
:1061800001334768806803F01F03013A33702270BF
:1061900068B9124B1E689EB12B780BB1FFF7A6FFB2
:1061A000304641463A4607F004FB3668F3E7B8F15B
:1061B000810F04BF0123837341463A4607F0F9FA81
:1061C0002B7820781844BDE8F08100BF015D0020E5
:1061D000005D0020FF5C002044430020404300207D
:1061E000024A034B10781B7818447047005D00206A
:1061F000015D0020F0B50B4E3378202B0FD00A4CF8
:106200000C252478094F1C4404F01F046C4301330F
:106210003D19A86039556A6033700020F0BD012037
:10622000F0BD00BF005D0020FF5C00204443002063
:1062300038B5034C256807F0BCFA256038BD00BFAF
:106240003C43002010B50A4609490C6823468342A6
:106250000DD00BB11B68FAE748B10460086001215A
:10626000817383818121BDE81040FFF7E1BF10BD3C
:106270004043002038B1837B013B012B9FBF024A82
:106280000123C37313707047015D002010B5084CE3
:10629000206858B1002323608168436898472368C9
:1062A00023B1BDE810401868FDF796BE10BD00BFD1
:1062B000C444002038B505880446672D09D0792DDF
:1062C0002ED0002D32D1FFF729FF1B4B18701B4B2E
:1062D0001D601B4807F0B0FA431C01D167231DE085
:1062E0000A28164B07D01A687E2AF2DC511C196066
:1062F000144B9854EDE7196800254A1C1A60114A9E
:106300000D4B555428461978FFF774FF0E4B852125
:1063100018682A46FFF76EFF20B97923238009E029
:10632000852907D1054B00221A60D2E7002303809C
:10633000032038BD012038BDD96D0020D044002095
:10634000C8440020845D00203C4300200D2810B587
:10635000014615D00B4C23782BB90B4807F058FA9F
:1063600048B9012306E00A2805D1074807F050FA8A
:1063700008B1002323700548FFF77CFF012010BD02
:10638000002010BD035D0020C8440020A84000206C
:1063900008B505480549802207F033FABDE80840F2
:1063A00003480021FFF74EBFC8440020045D0020D1
:1063B000A840002070B505880446772D30D07E2D8A
:1063C0003FD0002D4DD1FFF7A9FE294B1870294B66
:1063D0001D601D462B68284A264E52F823204AB1DC
:1063E00026480021C15493688020984733680133C0
:1063F0003360EFE7224A1370772320E01F4AD2561A
:10640000002A12DB1B4A136801331360194B1C4A24
:106410001B6812789342F1DB1A4B1B68002BEBD000
:10642000184A00231360134AEFE7114A002011783D
:10643000114A52F82320FFF7DDFE30B97E23238076
:1064400013E00B4B1B788B420FD10A4B0B491A6898
:106450008B5C03F07F038B540A4A1368013313608B
:10646000D0E700230380032070BD012070BD00BF72
:10647000DA6D0020D444002050400020D46D00206C
:10648000045E0020D8440020094B1A780023934270
:1064900004DA084951F82310814207D10649074818
:1064A000CA5C62F07F02CA54FFF7E4BE0133EEE734
:1064B000045E002050400020D46D0020B840002031
:1064C000054A136843F004031360044B1B6890698A
:1064D00043EA002080B2704700700D4014700D40F8
:1064E000174A136823F00C031360164B01221A603D
:1064F0001A68012AFCD1144B08221A60E322C3F85F
:10650000142203F505731946104B1B68DB07FBD5F6
:10651000102000230E4A0138126802F0010243EAFB
:1065200002034FEA43039BB2F4D1002BF0D0094A97
:10653000180A03F0FE0310601360EF230B6070472E
:1065400000700D40A8200D40248608406486084055
:106550009C86084014700D402DE9FF411F4C204DD2
:1065600004F108030FCB8DE80F0029786F4694F8EB
:106570000780A1B13A23A3711A4B1A88521A92B21A
:106580001A80A2F1280318122C312071214404F141
:106590002C002C3A637106F0CBFD00232B701248BF
:1065A00007F05DF9064690B1D6F804C0BCF1000FC3
:1065B00009D00C4B2A781B8838322C3B3846414690
:1065C00022449BB2E047304607F086F9EAE7054BE4
:1065D0002870188004B0BDE8F08100BFDC6700209F
:1065E000275E0020C8670020DC440020F8B52A4B55
:1065F0002A4C1B7904F11806E371237E04F1080587
:10660000FF2B08D195E80F0086E80F002846314699
:1066100000F0DEFA1BE02F46B646214A3B4603CB8C
:106620007345106051601F4602F10802F6D196E8EA
:106630000F0085E80F001A4B1A4D03F110062A4689
:1066400018685968083303C2B3421546F7D1164D8E
:10665000297899B13A23A371144B1A88521A92B22D
:106660001A80A2F1280318122C312071637110488E
:1066700021442C3A06F05CFD00232B702B788122FC
:106680002833E518E25400236B706B8007F0EDF9B6
:10669000C0436880F8BD00BF5C660020DC67002056
:1066A000A6570020F4670020275E0020C86700205E
:1066B0000868002038B504460B480D4607F0CFF8AF
:1066C00078B10379A34209D14379AB4204D18368FD
:1066D0003BB19847002038BDFF2BF8D007F0FCF8FD
:1066E000EEE7012038BD00BFE0440020014601482C
:1066F00007F0D3B8E04400202DE9F74F484D81461C
:106700002B7888469246474C43B12833E35C3A2BBA
:106710000BD1454A002313802B707EE0A3793A2BDE
:1067200003D194F92830002BF3DA04F093F83F4EAC
:106730003F4AB446934606F1100E334603CB7345E9
:10674000106051601E4602F10802F6D1364E2F78D5
:10675000338804EB470030339BB2B3F5A06F88BF9A
:106760004FF4A063338032882E4BD21B1946303A47
:106770003030CDF804C0009306F0DAFC9DE8081034
:10678000602222700022627062803A2217B183F880
:10679000282000E09A71274A224B1279E27122895F
:1067A00072B95A8962B99A8952B9DA8942B91A8A90
:1067B00032B95A8A22B99A8A12B9DB8A002BA8D038
:1067C0001D4B0FCB8CE80F009BF80030FF2B05D141
:1067D000B9F1040F9DD1B8F1020F9AD114491648AE
:1067E00000F0F6F92F78504607F12803E21804F874
:1067F000039082F8018007F044F933882C37283B56
:10680000E0511A1263712B78227128331C44002343
:10681000638007F02AF9C043608003B0BDE8F08FC1
:10682000275E0020DC670020C8670020F467002096
:10683000A65700205C660020E46700202DE9F041A7
:106840001E460F461B4905460C4660230B7000236D
:106850004B704B803A238B71174B90461B7900F19C
:10686000100ECB71331D1A120A714B7101F118020F
:10687000134628686968083503C375451A46F7D179
:106880000E482C3600F1100100F0A2F90C4B1B78D9
:106890002833E518E75400236B8085F8018007F062
:1068A000E4F8C043074B68801E80BDE8F04102F069
:1068B000DDBF00BFDC6700205C660020E4670020CD
:1068C000275E0020C867002008B50448FFF70EFFC8
:1068D000BDE808400248FFF709BF00BFC8400020DC
:1068E000D44000202DE9F3410446154D00910E4699
:1068F00090461F460195234612480321202207F0A7
:1069000044F801282B4616D12A6804F110011070B2
:1069100020462A68023250F8044B884242F8044B61
:10692000F9D11868089B86744361099B80F813802D
:106930000777836100E0002002B0BDE8F08100BF6E
:10694000E84400205867002070B506460B4D0C4BFC
:106950002B602C680B4B9C420BD2237833B1A27C6A
:10696000A01C3146D20806F03BFB20B120342C603D
:10697000EFE7002070BD012070BD00BFE84400209B
:1069800058670020B867002013B5084C80220346E2
:106990000092019406480321202206F0F6FF08B970
:1069A000206800E0002002B010BD00BFEC440020D1
:1069B0007466002010B50C4A0C4B136013680C4928
:1069C0008B420DD2197849B1411C02D0997C814289
:1069D00004D148F2FE015C888C4202D02033ECE7FF
:1069E0000023184610BD00BFEC4400207466002050
:1069F000D466002010B50C4A0C4B136013680C4988
:106A00008B420DD2197849B1411C02D0997C814248
:106A100004D148F2FE015C888C4202D12033ECE7BD
:106A20000023184610BD00BFEC440020746600200F
:106A3000D466002037B504460F4D8023009301959E
:106A400023460E480521122206F09FFF01282B46FF
:106A50000ED12A6804F11001107020462A68023213
:106A600050F8044B884242F8044BF9D1186800E012
:106A7000002003B030BD00BFE4440020F8660020D1
:106A8000F7B50546204C802300930E461746019427
:106A90001E48032120222B4606F077FF012830D123
:106AA0002A46236805F1100118702368023352F852
:106AB000040B8A4243F8040BF9D12068C77416B955
:106AC0000123037505E0002303753146183006F0F5
:106AD00046FE23680E480121997402234370FF2269
:106AE0000023027043808380C38003818372C1725C
:106AF00002736B7B4373EB89C381FFF79BFF2068B5
:106B000000E0002003B0F0BDEC44002074660020DB
:106B1000B657002013B5084C80220346009201941A
:106B200006480521122206F030FF08B9206800E06F
:106B3000002002B010BD00BFE4440020F866002031
:106B400038B50546C8B10D48022200244270FF2323
:106B50000122C27244808480C480048184720373E1
:106B60000370EB7B43732B8AC381FFF7D3FF044A87
:106B7000106008B106F02DFF2C7038BDB65700200C
:106B8000E444002010B50E4B0E4C236020680E4BE1
:106B900098420ED203784BB1037D3BB91830FFF712
:106BA00085F918B1074B1868FFF7CAFF236820332F
:106BB000EBE700F0E9FABDE81040044806F0DFBD5D
:106BC00074660020EC440020D4660020B8670020E2
:106BD0002DE9F84348F2FE030A8805469A428846A2
:106BE00021D00B78FF2B1ED01B4B0024A1461F4643
:106BF0001A4A1A603E681A4A964218D233787BB114
:106C0000B37C012B0CD148F2FE0372889A4207D064
:106C10004046B11C06F0EAFE484524BF3446814692
:106C200020363E60E6E70120FFF7C4FE04464CB97B
:106C30002C806C80AC80EC802C816C81AC81EC81F0
:106C4000BDE8F883A31C123453F8042BA34245F883
:106C5000042BF9D1BDE8F883EC44002074660020D1
:106C6000D466002010B5FFF72BFC0446FFF728FC84
:106C7000054B24029A68A4B22044B0FBF2F302FB55
:106C8000130000EB520010BD5C66002073B52F4C62
:106C900001F008FB00F08EF8002160222C4806F07D
:106CA000ABFA00212046F82206F0A6FA294B202252
:106CB0001A70294B18221A704FF4A0632360274BD7
:106CC00040262671A360FFF7CDFF42F210732361C7
:106CD00048F2FE03314640F2FF260025E0602575AC
:106CE0001F4C2A46238065802B46A580E5802046E0
:106CF00000950195FFF7F6FD20461A4906F06DFE56
:106D0000294601222046FFF7BBFE4FF48073204640
:106D1000E38126806580A580E58025816581A58148
:106D2000FFF788FE4FF40073204626806580A5801B
:106D3000E58025816581A581E381FFF77BFE0A4817
:106D40000C2102B0BDE8704006F010BD5C6600206A
:106D5000586700205567002054670020C0270900AD
:106D6000B6570020D4670020B86700202DE9F04115
:106D700005460D480F46904606F071FD044688B161
:106D8000012D04D8094806F0A0FD034601E0084B98
:106D90001B682846666839464246B047204606F0DA
:106DA0009BFDEBE7BDE8F081BC48002034450020A6
:106DB0003045002008B50B4806F091FD0A4806F062
:106DC0004BFD0A4B0A49186804F0FCFB094806F021
:106DD00086FD094806F040FDBDE80840074806F07A
:106DE0003BBD00BF00410020B8450020FC40002012
:106DF0002FDA2000E040002034450020BC4800206D
:106E000008B5034640B1054A5968106807F084FD8B
:106E1000BDE8084006F03FBE08BD00BFFC400020B2
:106E2000014806F01CBD00BFB845002008B506F0BB
:106E300034FE014638B1044B186807F054FD0030A9
:106E400018BF012008BD08BDFC4000202DE9F0411D
:106E50008046FFF7E5FF0026044637469CB194F8CC
:106E60002450B5420AD3404604F10801EA0806F06E
:106E7000B7F818B9802D08D02E462746204606F0D0
:106E8000D2FD0446EAE73C4667B1084806F0E7FC55
:106E9000844207D00548214606F0EBFC0348214612
:106EA00006F00AFD2046BDE8F08100BFB84500208D
:106EB00038B5044600283ED04368002B3BD01E481E
:106EC000214606F0D6FC6368586806F0C8FC054603
:106ED00030B14368A34207D0284606F0FDFCF6E730
:106EE00004F1080002F00EFC63682946586806F0B9
:106EF000C0FC6368586806F0B2FC28B963680F4AA2
:106F00005968106804F016FC21460D4806F00BFD88
:106F100029460C4806F007FD0B4A20461368013B42
:106F20001360FFF76DFF04F108010246BDE8384029
:106F30000320FFF71BBF38BDB8450020FC400020F0
:106F4000004100200C4100203045002010B50446CF
:106F500080B1406870B106F082FC20B14068FFF754
:106F6000A7FF6068F7E7044B2146BDE810401868AA
:106F700004F0E0BB10BD00BFFC4000202DE9F84F3D
:106F8000074610468946904606F087FD834610B9AD
:106F90000020BDE8F88F3846FFF758FF044660B17F
:106FA000FFF72EFF014628B14046102206F018F8E0
:106FB000002859D02046FFF77BFF2D4B1A689A46D0
:106FC000102AE5D02B4E5946306807F08CFC054658
:106FD00068B92B4630685946042204F021FB054667
:106FE0000028D5D000236860036006F035FC2248F5
:106FF00006F085FC04460028CAD02048214606F049
:107000005BFC1F4806F07BFC834620B921461A48EA
:1070100006F089FCBCE744606868594606F03DFC10
:10702000DAF800306560013330682946CAF800306C
:1070300004F096FB3B4604F1080507F110062A46CA
:1070400018685968083303C2B3421546F7D10021C6
:107050000C2284F8249004F1180006F0CDF80220E8
:1070600039464246FFF782FE2046BDE8F88F00BF52
:1070700030450020FC40002000410020B8450020A1
:107080000C41002038B505460D4806F0E8FB0446E3
:10709000A0B1AC420ED12146094806F0EAFB2146D8
:1070A000084806F040FC211D01200A46BDE8384092
:1070B000FFF75CBE204606F00FFCE8E738BD00BFD6
:1070C00034450020E040002038B50546084806F069
:1070D000C6FB044648B1201D2946102205F080FF5A
:1070E00018B1204606F0F8FBF3E7204638BD00BF94
:1070F00034450020F8B505460F46FFF7E5FF044686
:1071000040B9134806F0FBFB0446F0B11148214694
:1071100006F0D2FB2B46261D05F1100E32461868EC
:107120005968083303C273451646F7D137B104F1E5
:107130001400394606F013FB002300E001232377F7
:10714000002029462A46FFF711FE2046F8BD00BF61
:10715000E04000203445002038B50A4806F07FFBA7
:10716000044600255CB1251D284601F0CFF808B182
:10717000437C23B9204606F0AFFB0446F2E72846DD
:1071800038BD00BF3445002010B50A4806F067FB43
:10719000044670B1237F43B904F11400FEF786FE64
:1071A00018B12046FFF76EFFEFE7204606F094FB8C
:1071B000EEE710BD3445002037B5124B124D1C7858
:1071C0002B796A79C4EB032313449BB2ADF80630E4
:1071D000BDF8063005F108011844202280B206F0FF
:1071E00028FCBDF8062004F12801294492B206F0DB
:1071F00020FC10B140BA80B201E04FF6FF7003B03E
:1072000030BD00BF275E0020DC6700202DE9F04183
:10721000264F274E3D7827482835AB195C78022346
:10722000E40007349C423DDBE9187218715CDFF81A
:107230008080012931D002D3632902D011E00133CB
:107240002EE0037018461B4C03F084FAD0B13B7853
:1072500022782833134443445B7813440233237069
:1072600021E001F0C001802905D0C02905D04029C6
:1072700013D1037006E0037007E098F8182003703C
:10728000FF2A02D10120BDE8F08104200221EA1882
:10729000FFF732FA0220BDE8F0815278023213443F
:1072A000DBB2BFE703700020BDE8F081275E00205D
:1072B000DC6700202D5E0020F0B5C578124A0D4431
:1072C000EDB2D57083780F0A3B44DBB293704478FB
:1072D000BB4254700678167005D2601CC0B2507064
:1072E00008B901361670C9B28D420CDA0133DBB22F
:1072F000054993703BB94B780133DBB24B7013B93E
:107300000B7801330B70F0BDD067002010B5084C2E
:10731000014620681430FFF7CFFF064A2368117832
:107320001975517859759178D2789975DA7510BDBB
:10733000EC680020D067002008B5FFF7A7FCFFF736
:10734000C3FA06F0B3FB00230E49002221F81320F4
:107350000133082BF8D10C49002311443032B2F527
:10736000F07F81F82530F6D1084A4FF48061118012
:10737000074A00211A442033B3F5A07F1182F7D1C8
:1073800008BD00BFD86A0020F0680020C657002062
:10739000EC6A0020F0B5344D2B8801339BB2B3F575
:1073A000FA4F28BF4FF480530022304C144494F815
:1073B000256026B15EBA248AB6B2B442EDD030322E
:1073C000B2F5F07FF1D1294C2B8004F5F077002243
:1073D00094F8256023468EB1072E09D13AB194F86E
:1073E000266092F826309E4288BF224600E0224660
:1073F0003034BC42ECD11346002A33D0022283F849
:1074000025201B4A5982147800F110061C76547806
:107410005C769478D2789C76DA7600221A755A7562
:107420009A75DA7583F8272083F82220102283F8D2
:1074300023202A881D4652BA1A8202464024DC8341
:107440001C8401249C8383F82640032483F8244071
:107450002C4610685168083203C4B2422546F7D161
:107460001846F0BD1046F0BDC6570020F068002059
:10747000295E00202DE9F041124F3D7805B3DFF879
:107480004C8005F12703B8F80040A34203DB00233A
:10749000A8F8003013E00C4EA4F1280205F12801F1
:1074A000641BA4B206F128003144521B05F040FED3
:1074B000A8F80040283C23123371747100233B70FC
:1074C000BDE8F081275E0020DC670020C86700204F
:1074D0000023064A32F81310814203D1002122F81A
:1074E000131070470133082BF3D17047D86A00207E
:1074F0002DE9F74FA24E04283468A24F00F06F82A6
:10750000A149A24DA24A03280D6015608A4615D1F3
:1075100094F8253003F00F03032B08D1A38B002B25
:1075200040F074869B4B08221A7000F065BD022B58
:1075300040F06C86002305F8073CB3E302287AD1BB
:10754000954A00231370954A3B801380944AD37860
:107550000133DBB2D37063B993780133DBB293703C
:107560003BB953780133DBB2537013B9137801334D
:10757000137094F8253003F0FD02052A0DD194F81C
:1075800026300133DBB2782B84F8263040F03E867B
:10759000002384F8253000F039BE002B00F0368639
:1075A000A28B7C48002A3DD094F82620511E84F8F6
:1075B0002610002A40F02A8694F82720082A04D0B2
:1075C000591E01290AD8052A08D1002384F825303C
:1075D0008023037002F0AEFA00F01CBD042A9CBFA9
:1075E0000321914003F00F0394BFC9B2302101324F
:1075F000013B84F8261084F82720072B00F206862A
:10760000DFE813F04C0308000A00C3040406C304B7
:107610000406C304002242E30423037002F08AFA42
:1076200000F024BD03F00F03032B40F0EF85082387
:10763000037000F0E1BC052811D15A4B1B681B8A6E
:10764000002B00F0E3850C3D1560544A00231380A5
:1076500033603B804F4B08220D601A70BDE115F876
:107660003C3C3C3D03F0F003602B40F0CF852B7990
:107670006A791B0239889818884200F3C785283236
:1076800013443B802B7AFF2B00F0C085464EAB1D88
:107690003360464C404B00221A702270AA799846FB
:1076A000BAB901232370FFF7B1FD012800F0AE85C0
:1076B00003D3022800F0A6850BE098F8003003F110
:1076C00028022A4432605278083303EBC20388F858
:1076D00000303748FFF758F9002840F0B2803448AE
:1076E000FFF718FA002840F0AC802A7E304BFF2AC2
:1076F000A3F1180360D048F2FE00198B81425BD0E1
:107700001989814258D079B9598969B9998959B982
:10771000D98949B91B8A3BB9698A264B21B9998A0B
:1077200011B9DB8A002B47D0298B224B79B9598BB1
:1077300069B9998B59B9D98B49B9198C39B9598C0F
:1077400029B9998C19B9DB8CB3F5807F34D03B888B
:10775000B3F5A06F04D9022000214FF4A06205E028
:10776000EB79012B06D800210A460320FEF7C4FF5F
:1077700000F048BD0F4A013BD37100F043BD00BF8C
:10778000EC680020C8670020E86800201868002026
:10779000CC670020DC680020275E0020E86A00201B
:1077A000295E0020E4680020E0680020285E0020B8
:1077B000F4670020DC67002048F2FE032989994223
:1077C00040F02485298BA14B81B9598B71B9998BD4
:1077D00061B9D98B51B9198C41B9598C31B9998C8E
:1077E00021B9DB8CB3F5807F00F01085FF2A00F013
:1077F0000D859748FFF7A8F80246002840F0068557
:1078000001200221B2E725D9B9F13A0F78D02CD95D
:10781000B9F13B0F00F0FA84B9F13C0F6CD1237839
:107820008C4998073BD5580666D443F040030B704B
:10783000FFF7ECFC012800F0E98433D3022800F0C4
:10784000E1843268DFF83CB292F80090B9F12B0F76
:10785000D9D134E0B9F1060F00F01681B9F1110F5A
:107860006FD0B9F1000F47D104E0B9F12C0F00F04F
:10787000CD8441E02378D9073ED4764A43F0010312
:107880001370FFF7C3FC012800F0C084D6D298F82B
:10789000003003F128022A44CBF8002008E043F02E
:1078A0000203C4E798F8003003F128022A4432604A
:1078B0005278083303EBC20388F80030C1E723781D
:1078C00003F0040000F0FF01B0B9624A43F0040382
:1078D000137098F8002002F128032B44D87810B1D7
:1078E00004202A3242E7CBF800305B78083202EB02
:1078F000C302594B1A70A4E704200121521B35E73B
:1079000006F0B3F84FF6FF73984240F07F8498F882
:1079100000302833E85C01F083FF98F8003028330A
:10792000EA18E85C5178FEF7C5FE012801BF002384
:10793000494A3B8013703B88002B00F0678400F0BD
:1079400061BCFFF797FDEB8D85F8069053B96E8DFE
:10795000002E00F05B84414B414D2B603B4BB3F854
:1079600028800BE006F087F84FF6FF73984240F04E
:107970004D84ECE7238A33B920342C602C68394BD2
:107980009C42F7D315E09E42F6D1638A0BB198452D
:10799000F2D123682BB963681BB9A3680BB9E368FC
:1079A0005BB131482146102205F01AFB0028E3D1D3
:1079B00003E0012004210022D8E63B882B49303B1C
:1079C0003B8000230B602A4902202A4A08702A497A
:1079D000CAF800200A60294A138002F0ABF8274B4E
:1079E0001A88002A00F0128402F13003174C9BB26F
:1079F0003B80283B19126371194B08321B6852BA3D
:107A00002171197DA2850022E2851A8AE171228501
:107A10005A8A11216285A17104F118050FCB85E8FE
:107A20000F0004F108002946FFF7D2F8144B04F1C7
:107A30003C021A6006F01FF8C04380B208B1E0852E
:107A4000DAE34FF6FF73E385D6E300BFDC6700207F
:107A5000F4670020285E0020275E0020EC6A0020EA
:107A6000E46800202C6C0020E4670020EC68002013
:107A7000DC6800200C680020CC670020E86A002049
:107A8000E8680020E0680020FFF7F4FC85F8069025
:107A900005F0EEFF4FF6FF739842AE4C40F0B68310
:107AA000B4F82AB0BBF1000F00F0B083238D002B97
:107AB00000F0AC83A84EB44696F82590B9F1000FBB
:107AC00011D0328A5A450ED1728A9A420BD1A348FC
:107AD000314610228DE8081005F082FA9DE8081062
